:020000040000fa
:0800000000ae04000000000046
:020000040000fa
:020000040001f9
:085bf8000001040000000000a0
:020000040000fa
:020000040001f9
:105c00008f8e200041002000990007000000200036
:105c1000901c8800105f2000a01c88009163a800e1
:105c20009183a8009623ef008ee3a90030a3ef0034
:105c3000cda2a900d1a2a900e0ff2f00f10720000a
:105c4000910188001000ba00c200dd00c0ff2100f1
:105c500000806000001888000823ef007ee3a900a0
:105c600038a3ef001023ef001823ef002023ef00ec
:105c70002823ef00010020007d0007006080200045
:105c800000408800104088000428ef0099000700b9
:105c9000100cb100bb003a00300020008c0007005f
:105ca000300020008a000700000020008800070064
:105cb000b0042000860007000007eb006080200091
:105cc00000408800104088008a000700203b8800c0
:105cd000900188008700070063e7b7008500070090
:105ce00062e7b7006287bf00800278000002780098
:105cf00080000700800678007e00070080017800a1
:105d0000628820007b000700005978008301e900c9
:105d1000fcff3a006407e2000d003a006207e2006f
:105d20000b003a006288200040c0b30000597800a0
:105d300000c0b30000597800e0cab30000597800f1
:105d40000059eb0000c0b300005978000059eb0087
:105d50000e04e00003003200e00420005c000700b5
:105d6000d5ff3700628820000d10a700070037001c
:105d70000d20a7002f0037000d30a7003800370096
:105d80005005200052000700cbff37000000000044
:105d9000910180000500780008042000110009002e
:105da0004888d800882b20000800e1000600330056
:105db000f82b20000040e100030033000005200024
:105dc00043000700bcff37000502780010042400e0
:105dd0003400070003022000b2cabb00b25abb0065
:105de000b25abb008301e900fbff3a001000240017
:105df0002c000700030220006288200004007800c5
:105e000062a7b70014c0ba003204e10011003a00e2
:105e10003440ba003204e1000e003a003440ba00c7
:105e20003204e1000b003a008301e900f5ff3a007b
:105e30009fff3700400424001a000700920abb00ad
:105e400040002400170007001500ba001200e1000e
:105e500097ff3200600520001d00070096ff370005
:105e6000920abb00800024000e00070090ff37005c
:105e7000800f20009163b600010078009163b700a5
:105e800091c3bf00800078007100b20090c3bf00d2
:105e90004500de007000b2000100e100f8ff3a00aa
:105ea00000000600003b880050052000303b8800c1
:105eb000a00a2000303b880061e7a8000000000035
:105ec0000000000061e7af00feff370000000600a1
:105ed000301b8800c08f2000001b88006423ef0067
:105ee0006463a8006e63a8006e63af00feff370016
:105ef00000000600080007000408e2001600320057
:105f00000140800011407800f00fb2000028ec0042
:105f10000428ed00000006009603ae000000060015
:105f200060382000281c8000f800b200114080007a
:105f30000804e9000880080002000000104747003c
:105f40000428ec00b0587800114088009603a9009e
:105f50008ee3a900000006006a0020008005eb0027
:105f60000060fe00ecff07000408e200e4ff3a00d6
:105f70008b05e900faff3a000a05e900f7ff3a004d
:085f80008f8e20001cff37008a
:020000040000fa
:020000040001f9
:045f8800f5bf000061
:00000001FF
